{
  "_format": "hh-sol-artifact-1",
  "contractName": "HeadsUp",
  "sourceName": "contracts/HeadsUp.sol",
  "abi": [
    {
      "inputs": [
        {
          "internalType": "string",
          "name": "name",
          "type": "string"
        },
        {
          "internalType": "string",
          "name": "symbol",
          "type": "string"
        },
        {
          "internalType": "bytes",
          "name": "jsonUrl",
          "type": "bytes"
        },
        {
          "internalType": "address",
          "name": "newOwner_address",
          "type": "address"
        }
      ],
      "stateMutability": "nonpayable",
      "type": "constructor"
    },
    {
      "inputs": [],
      "name": "LSP4TokenNameNotEditable",
      "type": "error"
    },
    {
      "inputs": [],
      "name": "LSP4TokenSymbolNotEditable",
      "type": "error"
    },
    {
      "inputs": [],
      "name": "LSP8CannotSendToAddressZero",
      "type": "error"
    },
    {
      "inputs": [],
      "name": "LSP8CannotUseAddressZeroAsOperator",
      "type": "error"
    },
    {
      "inputs": [],
      "name": "LSP8InvalidTransferBatch",
      "type": "error"
    },
    {
      "inputs": [
        {
          "internalType": "bytes32",
          "name": "tokenId",
          "type": "bytes32"
        }
      ],
      "name": "LSP8NonExistentTokenId",
      "type": "error"
    },
    {
      "inputs": [
        {
          "internalType": "bytes32",
          "name": "tokenId",
          "type": "bytes32"
        },
        {
          "internalType": "address",
          "name": "caller",
          "type": "address"
        }
      ],
      "name": "LSP8NotTokenOperator",
      "type": "error"
    },
    {
      "inputs": [
        {
          "internalType": "address",
          "name": "tokenOwner",
          "type": "address"
        },
        {
          "internalType": "bytes32",
          "name": "tokenId",
          "type": "bytes32"
        },
        {
          "internalType": "address",
          "name": "caller",
          "type": "address"
        }
      ],
      "name": "LSP8NotTokenOwner",
      "type": "error"
    },
    {
      "inputs": [
        {
          "internalType": "address",
          "name": "tokenReceiver",
          "type": "address"
        }
      ],
      "name": "LSP8NotifyTokenReceiverContractMissingLSP1Interface",
      "type": "error"
    },
    {
      "inputs": [
        {
          "internalType": "address",
          "name": "tokenReceiver",
          "type": "address"
        }
      ],
      "name": "LSP8NotifyTokenReceiverIsEOA",
      "type": "error"
    },
    {
      "inputs": [
        {
          "internalType": "bytes32",
          "name": "tokenId",
          "type": "bytes32"
        }
      ],
      "name": "LSP8TokenIdAlreadyMinted",
      "type": "error"
    },
    {
      "anonymous": false,
      "inputs": [
        {
          "indexed": true,
          "internalType": "address",
          "name": "operator",
          "type": "address"
        },
        {
          "indexed": true,
          "internalType": "address",
          "name": "tokenOwner",
          "type": "address"
        },
        {
          "indexed": true,
          "internalType": "bytes32",
          "name": "tokenId",
          "type": "bytes32"
        }
      ],
      "name": "AuthorizedOperator",
      "type": "event"
    },
    {
      "anonymous": false,
      "inputs": [
        {
          "indexed": true,
          "internalType": "bytes32",
          "name": "dataKey",
          "type": "bytes32"
        }
      ],
      "name": "DataChanged",
      "type": "event"
    },
    {
      "anonymous": false,
      "inputs": [
        {
          "indexed": true,
          "internalType": "address",
          "name": "previousOwner",
          "type": "address"
        },
        {
          "indexed": true,
          "internalType": "address",
          "name": "newOwner",
          "type": "address"
        }
      ],
      "name": "OwnershipTransferred",
      "type": "event"
    },
    {
      "anonymous": false,
      "inputs": [
        {
          "indexed": true,
          "internalType": "address",
          "name": "operator",
          "type": "address"
        },
        {
          "indexed": true,
          "internalType": "address",
          "name": "tokenOwner",
          "type": "address"
        },
        {
          "indexed": true,
          "internalType": "bytes32",
          "name": "tokenId",
          "type": "bytes32"
        }
      ],
      "name": "RevokedOperator",
      "type": "event"
    },
    {
      "anonymous": false,
      "inputs": [
        {
          "indexed": false,
          "internalType": "address",
          "name": "operator",
          "type": "address"
        },
        {
          "indexed": true,
          "internalType": "address",
          "name": "from",
          "type": "address"
        },
        {
          "indexed": true,
          "internalType": "address",
          "name": "to",
          "type": "address"
        },
        {
          "indexed": true,
          "internalType": "bytes32",
          "name": "tokenId",
          "type": "bytes32"
        },
        {
          "indexed": false,
          "internalType": "bool",
          "name": "force",
          "type": "bool"
        },
        {
          "indexed": false,
          "internalType": "bytes",
          "name": "data",
          "type": "bytes"
        }
      ],
      "name": "Transfer",
      "type": "event"
    },
    {
      "inputs": [
        {
          "internalType": "address",
          "name": "operator",
          "type": "address"
        },
        {
          "internalType": "bytes32",
          "name": "tokenId",
          "type": "bytes32"
        }
      ],
      "name": "authorizeOperator",
      "outputs": [],
      "stateMutability": "nonpayable",
      "type": "function"
    },
    {
      "inputs": [
        {
          "internalType": "address",
          "name": "tokenOwner",
          "type": "address"
        }
      ],
      "name": "balanceOf",
      "outputs": [
        {
          "internalType": "uint256",
          "name": "",
          "type": "uint256"
        }
      ],
      "stateMutability": "view",
      "type": "function"
    },
    {
      "inputs": [],
      "name": "computeView",
      "outputs": [],
      "stateMutability": "nonpayable",
      "type": "function"
    },
    {
      "inputs": [],
      "name": "feedArrayKey",
      "outputs": [
        {
          "internalType": "bytes32",
          "name": "",
          "type": "bytes32"
        }
      ],
      "stateMutability": "view",
      "type": "function"
    },
    {
      "inputs": [],
      "name": "generateCollectionJSON",
      "outputs": [
        {
          "internalType": "string",
          "name": "",
          "type": "string"
        }
      ],
      "stateMutability": "pure",
      "type": "function"
    },
    {
      "inputs": [],
      "name": "generateJSON",
      "outputs": [
        {
          "internalType": "string",
          "name": "",
          "type": "string"
        }
      ],
      "stateMutability": "pure",
      "type": "function"
    },
    {
      "inputs": [
        {
          "internalType": "bytes32[]",
          "name": "dataKeys",
          "type": "bytes32[]"
        }
      ],
      "name": "getData",
      "outputs": [
        {
          "internalType": "bytes[]",
          "name": "dataValues",
          "type": "bytes[]"
        }
      ],
      "stateMutability": "view",
      "type": "function"
    },
    {
      "inputs": [
        {
          "internalType": "bytes32",
          "name": "key",
          "type": "bytes32"
        }
      ],
      "name": "getData",
      "outputs": [
        {
          "internalType": "bytes",
          "name": "",
          "type": "bytes"
        }
      ],
      "stateMutability": "view",
      "type": "function"
    },
    {
      "inputs": [
        {
          "internalType": "uint256",
          "name": "issueNumber",
          "type": "uint256"
        }
      ],
      "name": "getIssue",
      "outputs": [
        {
          "internalType": "bytes",
          "name": "",
          "type": "bytes"
        }
      ],
      "stateMutability": "view",
      "type": "function"
    },
    {
      "inputs": [],
      "name": "getNumberOfIssues",
      "outputs": [
        {
          "internalType": "uint256",
          "name": "",
          "type": "uint256"
        }
      ],
      "stateMutability": "view",
      "type": "function"
    },
    {
      "inputs": [
        {
          "internalType": "bytes32",
          "name": "tokenId",
          "type": "bytes32"
        }
      ],
      "name": "getOperatorsOf",
      "outputs": [
        {
          "internalType": "address[]",
          "name": "",
          "type": "address[]"
        }
      ],
      "stateMutability": "view",
      "type": "function"
    },
    {
      "inputs": [
        {
          "internalType": "address",
          "name": "operator",
          "type": "address"
        },
        {
          "internalType": "bytes32",
          "name": "tokenId",
          "type": "bytes32"
        }
      ],
      "name": "isOperatorFor",
      "outputs": [
        {
          "internalType": "bool",
          "name": "",
          "type": "bool"
        }
      ],
      "stateMutability": "view",
      "type": "function"
    },
    {
      "inputs": [
        {
          "internalType": "bool",
          "name": "force",
          "type": "bool"
        }
      ],
      "name": "mintFeedNft",
      "outputs": [],
      "stateMutability": "nonpayable",
      "type": "function"
    },
    {
      "inputs": [],
      "name": "owner",
      "outputs": [
        {
          "internalType": "address",
          "name": "",
          "type": "address"
        }
      ],
      "stateMutability": "view",
      "type": "function"
    },
    {
      "inputs": [],
      "name": "renounceOwnership",
      "outputs": [],
      "stateMutability": "nonpayable",
      "type": "function"
    },
    {
      "inputs": [
        {
          "internalType": "address",
          "name": "operator",
          "type": "address"
        },
        {
          "internalType": "bytes32",
          "name": "tokenId",
          "type": "bytes32"
        }
      ],
      "name": "revokeOperator",
      "outputs": [],
      "stateMutability": "nonpayable",
      "type": "function"
    },
    {
      "inputs": [
        {
          "internalType": "bytes",
          "name": "jsonUrl",
          "type": "bytes"
        }
      ],
      "name": "setCollectionData",
      "outputs": [],
      "stateMutability": "nonpayable",
      "type": "function"
    },
    {
      "inputs": [
        {
          "internalType": "bytes",
          "name": "jsonUrl",
          "type": "bytes"
        }
      ],
      "name": "setCoverData",
      "outputs": [],
      "stateMutability": "nonpayable",
      "type": "function"
    },
    {
      "inputs": [
        {
          "internalType": "bytes32[]",
          "name": "dataKeys",
          "type": "bytes32[]"
        },
        {
          "internalType": "bytes[]",
          "name": "dataValues",
          "type": "bytes[]"
        }
      ],
      "name": "setData",
      "outputs": [],
      "stateMutability": "nonpayable",
      "type": "function"
    },
    {
      "inputs": [
        {
          "internalType": "bytes32",
          "name": "dataKey",
          "type": "bytes32"
        },
        {
          "internalType": "bytes",
          "name": "dataValue",
          "type": "bytes"
        }
      ],
      "name": "setData",
      "outputs": [],
      "stateMutability": "nonpayable",
      "type": "function"
    },
    {
      "inputs": [
        {
          "internalType": "bytes",
          "name": "content",
          "type": "bytes"
        }
      ],
      "name": "setNewIssue",
      "outputs": [],
      "stateMutability": "nonpayable",
      "type": "function"
    },
    {
      "inputs": [
        {
          "internalType": "bytes",
          "name": "jsonUrl",
          "type": "bytes"
        }
      ],
      "name": "setUnifiedCollectionData",
      "outputs": [],
      "stateMutability": "nonpayable",
      "type": "function"
    },
    {
      "inputs": [
        {
          "internalType": "bytes4",
          "name": "interfaceId",
          "type": "bytes4"
        }
      ],
      "name": "supportsInterface",
      "outputs": [
        {
          "internalType": "bool",
          "name": "",
          "type": "bool"
        }
      ],
      "stateMutability": "view",
      "type": "function"
    },
    {
      "inputs": [],
      "name": "tokenIdCounter",
      "outputs": [
        {
          "internalType": "uint256",
          "name": "",
          "type": "uint256"
        }
      ],
      "stateMutability": "view",
      "type": "function"
    },
    {
      "inputs": [
        {
          "internalType": "address",
          "name": "tokenOwner",
          "type": "address"
        }
      ],
      "name": "tokenIdsOf",
      "outputs": [
        {
          "internalType": "bytes32[]",
          "name": "",
          "type": "bytes32[]"
        }
      ],
      "stateMutability": "view",
      "type": "function"
    },
    {
      "inputs": [],
      "name": "tokenMetadataJsonUrl",
      "outputs": [
        {
          "internalType": "bytes",
          "name": "",
          "type": "bytes"
        }
      ],
      "stateMutability": "view",
      "type": "function"
    },
    {
      "inputs": [
        {
          "internalType": "bytes32",
          "name": "tokenId",
          "type": "bytes32"
        }
      ],
      "name": "tokenOwnerOf",
      "outputs": [
        {
          "internalType": "address",
          "name": "",
          "type": "address"
        }
      ],
      "stateMutability": "view",
      "type": "function"
    },
    {
      "inputs": [],
      "name": "totalSupply",
      "outputs": [
        {
          "internalType": "uint256",
          "name": "",
          "type": "uint256"
        }
      ],
      "stateMutability": "view",
      "type": "function"
    },
    {
      "inputs": [
        {
          "internalType": "address",
          "name": "from",
          "type": "address"
        },
        {
          "internalType": "address",
          "name": "to",
          "type": "address"
        },
        {
          "internalType": "bytes32",
          "name": "tokenId",
          "type": "bytes32"
        },
        {
          "internalType": "bool",
          "name": "force",
          "type": "bool"
        },
        {
          "internalType": "bytes",
          "name": "data",
          "type": "bytes"
        }
      ],
      "name": "transfer",
      "outputs": [],
      "stateMutability": "nonpayable",
      "type": "function"
    },
    {
      "inputs": [
        {
          "internalType": "address[]",
          "name": "from",
          "type": "address[]"
        },
        {
          "internalType": "address[]",
          "name": "to",
          "type": "address[]"
        },
        {
          "internalType": "bytes32[]",
          "name": "tokenId",
          "type": "bytes32[]"
        },
        {
          "internalType": "bool",
          "name": "force",
          "type": "bool"
        },
        {
          "internalType": "bytes[]",
          "name": "data",
          "type": "bytes[]"
        }
      ],
      "name": "transferBatch",
      "outputs": [],
      "stateMutability": "nonpayable",
      "type": "function"
    },
    {
      "inputs": [
        {
          "internalType": "address",
          "name": "newOwner",
          "type": "address"
        }
      ],
      "name": "transferOwnership",
      "outputs": [],
      "stateMutability": "nonpayable",
      "type": "function"
    },
    {
      "inputs": [
        {
          "internalType": "bytes",
          "name": "content",
          "type": "bytes"
        },
        {
          "internalType": "uint256",
          "name": "issueNumber",
          "type": "uint256"
        }
      ],
      "name": "updateIssue",
      "outputs": [],
      "stateMutability": "nonpayable",
      "type": "function"
    }
  ],
  "bytecode": "0x60806040523480156200001157600080fd5b5060405162004f9c38038062004f9c833981810160405281019062000037919062000a5f565b8383828282828062000054816200031960201b620013c51760201c565b50620000c47feafec4d89fa9619884b60000a4d96624a38f7ac2d8d9a604ecf07c12c77e480c60001b6040518060400160405280600481526020017fa4d96624000000000000000000000000000000000000000000000000000000008152506200042160201b620014c41760201c565b620000fe7fdeba1e292f8ba88238e10ab3c7f88bd4be4fac56cad5194b6ecceaf653468af160001b846200042160201b620014c41760201c565b620001387f2f0a68ab07768e01943a599e73362a0e17a63a72e94dd2e384d2c1d4db93275660001b836200042160201b620014c41760201c565b5050505050506000846040518060400160405280600281526020017f5b5d0000000000000000000000000000000000000000000000000000000000008152506040516020016200018a92919062000b7b565b60405160208183030381529060405290506000620001b3826200047c60201b6200151d1760201c565b600781905550620001ee7f9afb95cacc9f95858ec44aa8c3b685511002e30ae54415823f406128b85b238e60001b856200058d60201b60201c565b620002236007548260405160200162000208919062000bd2565b6040516020818303038152906040526200058d60201b60201c565b6200027a7f715f248956de7ce65e94d9d836bfead479f7e70d69b718d47bfe7b00e05b4fe460001b60026040516020016200025f919062000bd2565b6040516020818303038152906040526200058d60201b60201c565b60006040518060400160405280600f81526020017f6b656363616b32353628757466382900000000000000000000000000000000008152509050620002f481620002c96200066460201b60201c565b60405180606001604052806035815260200162004f3e603591396200068560201b620016201760201c565b600890805190602001906200030b929190620006f9565b505050505050505062000e55565b62000329620006d060201b60201c565b73ffffffffffffffffffffffffffffffffffffffff168173ffffffffffffffffffffffffffffffffffffffff16146200041e5760008060009054906101000a900473ffffffffffffffffffffffffffffffffffffffff169050816000806101000a81548173ffffffffffffffffffffffffffffffffffffffff021916908373ffffffffffffffffffffffffffffffffffffffff1602179055508173ffffffffffffffffffffffffffffffffffffffff168173ffffffffffffffffffffffffffffffffffffffff167f8be0079c531659141344cd1fd0a4f28419497f9722a3daafe3b4186f6b6457e060405160405180910390a3505b50565b806001600084815260200190815260200160002090805190602001906200044a929190620006f9565b50817fcdf4e344c0d23d4cdd0474039d176c55b19d531070dbe17856bfb993a5b5720b60405160405180910390a25050565b600080829050605b60f81b816002835162000498919062000c1e565b81518110620004ac57620004ab62000c59565b5b602001015160f81c60f81b7effffffffffffffffffffffffffffffffffffffffffffffffffffffffffffff19161480156200053b5750605d60f81b8160018351620004f8919062000c1e565b815181106200050c576200050b62000c59565b5b602001015160f81c60f81b7effffffffffffffffffffffffffffffffffffffffffffffffffffffffffffff1916145b6200057d576040517f08c379a0000000000000000000000000000000000000000000000000000000008152600401620005749062000d0f565b60405180910390fd5b8080519060200120915050919050565b7fdeba1e292f8ba88238e10ab3c7f88bd4be4fac56cad5194b6ecceaf653468af160001b821415620005eb576040517f85c169bd00000000000000000000000000000000000000000000000000000000815260040160405180910390fd5b7f2f0a68ab07768e01943a599e73362a0e17a63a72e94dd2e384d2c1d4db93275660001b82141562000649576040517f76755b3800000000000000000000000000000000000000000000000000000000815260040160405180910390fd5b6200066082826200042160201b620014c41760201c565b5050565b606060405180606001604052806029815260200162004f7360299139905090565b6060600084805190602001209050600084805190602001209050818185604051602001620006b69392919062000db1565b604051602081830303815290604052925050509392505050565b60008060009054906101000a900473ffffffffffffffffffffffffffffffffffffffff16905090565b828054620007079062000e1f565b90600052602060002090601f0160209004810192826200072b576000855562000777565b82601f106200074657805160ff191683800117855562000777565b8280016001018555821562000777579182015b828111156200077657825182559160200191906001019062000759565b5b5090506200078691906200078a565b5090565b5b80821115620007a55760008160009055506001016200078b565b5090565b6000604051905090565b600080fd5b600080fd5b600080fd5b600080fd5b6000601f19601f8301169050919050565b7f4e487b7100000000000000000000000000000000000000000000000000000000600052604160045260246000fd5b6200081282620007c7565b810181811067ffffffffffffffff82111715620008345762000833620007d8565b5b80604052505050565b600062000849620007a9565b905062000857828262000807565b919050565b600067ffffffffffffffff8211156200087a5762000879620007d8565b5b6200088582620007c7565b9050602081019050919050565b60005b83811015620008b257808201518184015260208101905062000895565b83811115620008c2576000848401525b50505050565b6000620008df620008d9846200085c565b6200083d565b905082815260208101848484011115620008fe57620008fd620007c2565b5b6200090b84828562000892565b509392505050565b600082601f8301126200092b576200092a620007bd565b5b81516200093d848260208601620008c8565b91505092915050565b600067ffffffffffffffff821115620009645762000963620007d8565b5b6200096f82620007c7565b9050602081019050919050565b6000620009936200098d8462000946565b6200083d565b905082815260208101848484011115620009b257620009b1620007c2565b5b620009bf84828562000892565b509392505050565b600082601f830112620009df57620009de620007bd565b5b8151620009f18482602086016200097c565b91505092915050565b600073ffffffffffffffffffffffffffffffffffffffff82169050919050565b600062000a2782620009fa565b9050919050565b62000a398162000a1a565b811462000a4557600080fd5b50565b60008151905062000a598162000a2e565b92915050565b6000806000806080858703121562000a7c5762000a7b620007b3565b5b600085015167ffffffffffffffff81111562000a9d5762000a9c620007b8565b5b62000aab8782880162000913565b945050602085015167ffffffffffffffff81111562000acf5762000ace620007b8565b5b62000add8782880162000913565b935050604085015167ffffffffffffffff81111562000b015762000b00620007b8565b5b62000b0f87828801620009c7565b925050606062000b228782880162000a48565b91505092959194509250565b600081519050919050565b600081905092915050565b600062000b518262000b2e565b62000b5d818562000b39565b935062000b6f81856020860162000892565b80840191505092915050565b600062000b89828562000b44565b915062000b97828462000b44565b91508190509392505050565b6000819050919050565b6000819050919050565b62000bcc62000bc68262000ba3565b62000bad565b82525050565b600062000be0828462000bb7565b60208201915081905092915050565b7f4e487b7100000000000000000000000000000000000000000000000000000000600052601160045260246000fd5b600062000c2b8262000ba3565b915062000c388362000ba3565b92508282101562000c4e5762000c4d62000bef565b5b828203905092915050565b7f4e487b7100000000000000000000000000000000000000000000000000000000600052603260045260246000fd5b600082825260208201905092915050565b7f4d697373696e6720656d7074792073717561726520627261636b65747320275b60008201527f5d272061742074686520656e64206f6620746865206b6579206e616d65000000602082015250565b600062000cf7603d8362000c88565b915062000d048262000c99565b604082019050919050565b6000602082019050818103600083015262000d2a8162000ce8565b9050919050565b60007fffffffff0000000000000000000000000000000000000000000000000000000082169050919050565b6000819050919050565b62000d7c62000d768262000d31565b62000d5d565b82525050565b6000819050919050565b6000819050919050565b62000dab62000da58262000d82565b62000d8c565b82525050565b600062000dbf828662000d67565b60048201915062000dd1828562000d96565b60208201915062000de3828462000b44565b9150819050949350505050565b7f4e487b7100000000000000000000000000000000000000000000000000000000600052602260045260246000fd5b6000600282049050600182168062000e3857607f821691505b6020821081141562000e4f5762000e4e62000df0565b5b50919050565b6140d98062000e656000396000f3fe608060405234801561001057600080fd5b50600436106101f05760003560e01c8063715018a61161010f578063a81acdab116100a2578063d3cbeeed11610071578063d3cbeeed146105b7578063d5ea64f7146105d3578063e1708614146105ef578063f2fde38b146105f9576101f0565b8063a81acdab14610543578063af3efead14610561578063c30242b21461057d578063cf5182ba1461059b576101f0565b8063976b3113116100de578063976b3113146104a757806398bdf6f5146104d7578063a153876d146104f5578063a3b261f214610513576101f0565b8063715018a6146104455780637f23690c1461044f5780638da5cb5b1461046b57806391d28a2914610489576101f0565b80634158f1c71161018757806354f6127f1161015657806354f6127f146103ab57806355908868146103db57806357b68e9c146103f757806370a0823114610415576101f0565b80634158f1c71461031357806349a6078d1461032f5780634e3e6e9c1461035f578063511b69521461038f576101f0565b8063217b2270116101c3578063217b22701461027b5780632a3654a4146102ab5780632a8f42cd146102db57806330f0d5ae146102f7576101f0565b806301ffc9a7146101f55780630b0c6d821461022557806314a6e2931461024157806318160ddd1461025d575b600080fd5b61020f600480360381019061020a919061290b565b610615565b60405161021c9190612953565b60405180910390f35b61023f600480360381019061023a9190612a02565b610676565b005b61025b60048036038101906102569190612d31565b6107b7565b005b610265610862565b6040516102729190612dc2565b60405180910390f35b61029560048036038101906102909190612ddd565b61086c565b6040516102a29190612e19565b60405180910390f35b6102c560048036038101906102c09190612a02565b610920565b6040516102d29190612953565b60405180910390f35b6102f560048036038101906102f09190612e8f565b61093d565b005b610311600480360381019061030c9190612f08565b6109ec565b005b61032d60048036038101906103289190612f35565b610a35565b005b61034960048036038101906103449190612ddd565b610a84565b604051610356919061303c565b60405180910390f35b6103796004803603810190610374919061305e565b610ab1565b60405161038691906131f1565b60405180910390f35b6103a960048036038101906103a49190613213565b610c75565b005b6103c560048036038101906103c09190612ddd565b610ce3565b6040516103d291906132f4565b60405180910390f35b6103f560048036038101906103f091906133d9565b610dcd565b005b6103ff610ec0565b60405161040c9190613519565b60405180910390f35b61042f600480360381019061042a919061353b565b610ee0565b60405161043c9190612dc2565b60405180910390f35b61044d610f30565b005b61046960048036038101906104649190613568565b610f44565b005b610473610f5a565b6040516104809190612e19565b60405180910390f35b610491610f83565b60405161049e91906132f4565b60405180910390f35b6104c160048036038101906104bc91906135f0565b611011565b6040516104ce91906132f4565b60405180910390f35b6104df61102e565b6040516104ec9190612dc2565b60405180910390f35b6104fd611034565b60405161050a919061362c565b60405180910390f35b61052d6004803603810190610528919061353b565b61103a565b60405161053a9190613705565b60405180910390f35b61054b61108a565b6040516105589190613519565b60405180910390f35b61057b60048036038101906105769190612f35565b6110aa565b005b6105856110cc565b6040516105929190612dc2565b60405180910390f35b6105b560048036038101906105b09190612a02565b6110ea565b005b6105d160048036038101906105cc9190612f35565b6112a1565b005b6105ed60048036038101906105e89190613727565b6112d9565b005b6105f761133f565b005b610613600480360381019061060e919061353b565b611341565b005b6000634939914560e01b7bffffffffffffffffffffffffffffffffffffffffffffffffffffffff1916827bffffffffffffffffffffffffffffffffffffffffffffffffffffffff1916148061066f575061066e82611669565b5b9050919050565b60006106818261086c565b9050600061068d6116ca565b90508073ffffffffffffffffffffffffffffffffffffffff168273ffffffffffffffffffffffffffffffffffffffff1614610703578183826040517f5b271ea20000000000000000000000000000000000000000000000000000000081526004016106fa93929190613787565b60405180910390fd5b600073ffffffffffffffffffffffffffffffffffffffff168473ffffffffffffffffffffffffffffffffffffffff16141561076a576040517f9577b8b300000000000000000000000000000000000000000000000000000000815260040160405180910390fd5b8373ffffffffffffffffffffffffffffffffffffffff168273ffffffffffffffffffffffffffffffffffffffff1614156107a55750506107b3565b6107b08483856116d2565b50505b5050565b6107bf611758565b8051825114610803576040517f08c379a00000000000000000000000000000000000000000000000000000000081526004016107fa90613830565b60405180910390fd5b60005b825181101561085d5761084d83828151811061082557610824613850565b5b60200260200101518383815181106108405761083f613850565b5b60200260200101516117cf565b61085681611897565b9050610806565b505050565b6000600254905090565b6000806003600084815260200190815260200160002060009054906101000a900473ffffffffffffffffffffffffffffffffffffffff169050600073ffffffffffffffffffffffffffffffffffffffff168173ffffffffffffffffffffffffffffffffffffffff16141561091757826040517fae8f9a3600000000000000000000000000000000000000000000000000000000815260040161090e919061362c565b60405180910390fd5b80915050919050565b600061092b826118a4565b61093583836118f1565b905092915050565b610945611758565b6000610952600754611963565b61095b906138b1565b60001c90506109b961096f60075483611a08565b84848080601f016020809104026020016040519081016040528093929190818152602001838380828437600081840152601f19601f820116905080830192505050505050506117cf565b6109e7600754600183016040516020016109d39190613939565b6040516020818303038152906040526117cf565b505050565b610a323360065460001b836040518060400160405280600a81526020017f6d696e7420746f6b656e00000000000000000000000000000000000000000000815250611a2d565b50565b610a3d611758565b610a6a7f9afb95cacc9f95858ec44aa8c3b685511002e30ae54415823f406128b85b238e60001b826117cf565b8060089080519060200190610a809291906127fc565b5050565b6060610a8f826118a4565b610aaa60056000848152602001908152602001600020611c1b565b9050919050565b6060815167ffffffffffffffff811115610ace57610acd612a58565b5b604051908082528060200260200182016040528015610b0157816020015b6060815260200190600190039081610aec5790505b50905060005b8251811015610c6f57828181518110610b2357610b22613850565b5b602002602001015173ffffffffffffffffffffffffffffffffffffffff19166b9a26b4060ae7f7d5e3cd000060a01b73ffffffffffffffffffffffffffffffffffffffff19161415610c1d5760088054610b7c90613983565b80601f0160208091040260200160405190810160405280929190818152602001828054610ba890613983565b8015610bf55780601f10610bca57610100808354040283529160200191610bf5565b820191906000526020600020905b815481529060010190602001808311610bd857829003601f168201915b5050505050828281518110610c0d57610c0c613850565b5b6020026020010181905250610c5f565b610c40838281518110610c3357610c32613850565b5b6020026020010151611963565b828281518110610c5357610c52613850565b5b60200260200101819052505b610c6881611897565b9050610b07565b50919050565b6000610c7f6116ca565b9050610c8b81856118f1565b610cce5783816040517f1294d2a9000000000000000000000000000000000000000000000000000000008152600401610cc59291906139b5565b60405180910390fd5b610cdb8686868686611c3c565b505050505050565b60608173ffffffffffffffffffffffffffffffffffffffff19166b9a26b4060ae7f7d5e3cd000060a01b73ffffffffffffffffffffffffffffffffffffffff19161415610dbc5760088054610d3790613983565b80601f0160208091040260200160405190810160405280929190818152602001828054610d6390613983565b8015610db05780601f10610d8557610100808354040283529160200191610db0565b820191906000526020600020905b815481529060010190602001808311610d9357829003601f168201915b50505050509050610dc8565b610dc582611963565b90505b919050565b83518551141580610de057508251855114155b80610ded57508051855114155b15610e24576040517f93a8311900000000000000000000000000000000000000000000000000000000815260040160405180910390fd5b60005b8551811015610eb857610ea5868281518110610e4657610e45613850565b5b6020026020010151868381518110610e6157610e60613850565b5b6020026020010151868481518110610e7c57610e7b613850565b5b602002602001015186868681518110610e9857610e97613850565b5b6020026020010151610c75565b8080610eb090613a0d565b915050610e27565b505050505050565b606060405180606001604052806029815260200161407b60299139905090565b6000610f29600460008473ffffffffffffffffffffffffffffffffffffffff1673ffffffffffffffffffffffffffffffffffffffff168152602001908152602001600020611ec7565b9050919050565b610f38611758565b610f4260006113c5565b565b610f4c611758565b610f5682826117cf565b5050565b60008060009054906101000a900473ffffffffffffffffffffffffffffffffffffffff16905090565b60088054610f9090613983565b80601f0160208091040260200160405190810160405280929190818152602001828054610fbc90613983565b80156110095780601f10610fde57610100808354040283529160200191611009565b820191906000526020600020905b815481529060010190602001808311610fec57829003601f168201915b505050505081565b606061102761102260075484611a08565b611963565b9050919050565b60065481565b60075481565b6060611083600460008473ffffffffffffffffffffffffffffffffffffffff1673ffffffffffffffffffffffffffffffffffffffff168152602001908152602001600020611edc565b9050919050565b606060405180606001604052806033815260200161404860339139905090565b6110b2611758565b80600890805190602001906110c89291906127fc565b5050565b60006110d9600754611963565b6110e2906138b1565b60001c905090565b60006110f58261086c565b905060006111016116ca565b90508073ffffffffffffffffffffffffffffffffffffffff168273ffffffffffffffffffffffffffffffffffffffff1614611177578183826040517f5b271ea200000000000000000000000000000000000000000000000000000000815260040161116e93929190613787565b60405180910390fd5b600073ffffffffffffffffffffffffffffffffffffffff168473ffffffffffffffffffffffffffffffffffffffff1614156111de576040517f9577b8b300000000000000000000000000000000000000000000000000000000815260040160405180910390fd5b8373ffffffffffffffffffffffffffffffffffffffff168273ffffffffffffffffffffffffffffffffffffffff16141561121957505061129d565b61123e8460056000868152602001908152602001600020611ef190919063ffffffff16565b50828273ffffffffffffffffffffffffffffffffffffffff168573ffffffffffffffffffffffffffffffffffffffff167f34b797fc5a526f7bf1d2b5de25f6564fd85ae364e3ee939aee7c1ac27871a98860405160405180910390a450505b5050565b6112a9611758565b6112d67f9afb95cacc9f95858ec44aa8c3b685511002e30ae54415823f406128b85b238e60001b826117cf565b50565b6112e1611758565b61133a6112f060075483611a08565b84848080601f016020809104026020016040519081016040528093929190818152602001838380828437600081840152601f19601f820116905080830192505050505050506117cf565b505050565b565b611349611758565b600073ffffffffffffffffffffffffffffffffffffffff168173ffffffffffffffffffffffffffffffffffffffff1614156113b9576040517f08c379a00000000000000000000000000000000000000000000000000000000081526004016113b090613ac8565b60405180910390fd5b6113c2816113c5565b50565b6113cd610f5a565b73ffffffffffffffffffffffffffffffffffffffff168173ffffffffffffffffffffffffffffffffffffffff16146114c15760008060009054906101000a900473ffffffffffffffffffffffffffffffffffffffff169050816000806101000a81548173ffffffffffffffffffffffffffffffffffffffff021916908373ffffffffffffffffffffffffffffffffffffffff1602179055508173ffffffffffffffffffffffffffffffffffffffff168173ffffffffffffffffffffffffffffffffffffffff167f8be0079c531659141344cd1fd0a4f28419497f9722a3daafe3b4186f6b6457e060405160405180910390a3505b50565b806001600084815260200190815260200160002090805190602001906114eb9291906127fc565b50817fcdf4e344c0d23d4cdd0474039d176c55b19d531070dbe17856bfb993a5b5720b60405160405180910390a25050565b600080829050605b60f81b81600283516115379190613ae8565b8151811061154857611547613850565b5b602001015160f81c60f81b7effffffffffffffffffffffffffffffffffffffffffffffffffffffffffffff19161480156115d15750605d60f81b81600183516115919190613ae8565b815181106115a2576115a1613850565b5b602001015160f81c60f81b7effffffffffffffffffffffffffffffffffffffffffffffffffffffffffffff1916145b611610576040517f08c379a000000000000000000000000000000000000000000000000000000000815260040161160790613b8e565b60405180910390fd5b8080519060200120915050919050565b606060008480519060200120905060008480519060200120905081818560405160200161164f93929190613c2c565b604051602081830303815290604052925050509392505050565b600063714df77c60e01b7bffffffffffffffffffffffffffffffffffffffffffffffffffffffff1916827bffffffffffffffffffffffffffffffffffffffffffffffffffffffff191614806116c357506116c282611f21565b5b9050919050565b600033905090565b6116f78360056000848152602001908152602001600020611f8b90919063ffffffff16565b50808273ffffffffffffffffffffffffffffffffffffffff168473ffffffffffffffffffffffffffffffffffffffff167f17d5389f6ab6adb2647dfa0aa365c323d37adacc30b33a65310b6158ce1373d560405160405180910390a4505050565b3373ffffffffffffffffffffffffffffffffffffffff16611777610f5a565b73ffffffffffffffffffffffffffffffffffffffff16146117cd576040517f08c379a00000000000000000000000000000000000000000000000000000000081526004016117c490613cb1565b60405180910390fd5b565b7fdeba1e292f8ba88238e10ab3c7f88bd4be4fac56cad5194b6ecceaf653468af160001b82141561182c576040517f85c169bd00000000000000000000000000000000000000000000000000000000815260040160405180910390fd5b7f2f0a68ab07768e01943a599e73362a0e17a63a72e94dd2e384d2c1d4db93275660001b821415611889576040517f76755b3800000000000000000000000000000000000000000000000000000000815260040160405180910390fd5b61189382826114c4565b5050565b6000600182019050919050565b6118ad81611fbb565b6118ee57806040517fae8f9a360000000000000000000000000000000000000000000000000000000081526004016118e5919061362c565b60405180910390fd5b50565b6000806118fd8361086c565b90508073ffffffffffffffffffffffffffffffffffffffff168473ffffffffffffffffffffffffffffffffffffffff16148061195a5750611959846005600086815260200190815260200160002061202790919063ffffffff16565b5b91505092915050565b606060016000838152602001908152602001600020805461198390613983565b80601f01602080910402602001604051908101604052809291908181526020018280546119af90613983565b80156119fc5780601f106119d1576101008083540402835291602001916119fc565b820191906000526020600020905b8154815290600101906020018083116119df57829003601f168201915b50505050509050919050565b600080611a18848460801b612057565b905080611a24906138b1565b91505092915050565b600073ffffffffffffffffffffffffffffffffffffffff168473ffffffffffffffffffffffffffffffffffffffff161415611a94576040517f24ecef4d00000000000000000000000000000000000000000000000000000000815260040160405180910390fd5b611a9d83611fbb565b15611adf57826040517f34c7b511000000000000000000000000000000000000000000000000000000008152600401611ad6919061362c565b60405180910390fd5b6000611ae96116ca565b9050611af760008686612083565b611b4884600460008873ffffffffffffffffffffffffffffffffffffffff1673ffffffffffffffffffffffffffffffffffffffff16815260200190815260200160002061212890919063ffffffff16565b50846003600086815260200190815260200160002060006101000a81548173ffffffffffffffffffffffffffffffffffffffff021916908373ffffffffffffffffffffffffffffffffffffffff160217905550838573ffffffffffffffffffffffffffffffffffffffff16600073ffffffffffffffffffffffffffffffffffffffff167fb333c813a7426a7a11e2b190cad52c44119421594b47f6f32ace6d8c7207b2bf848787604051611bfe93929190613cd1565b60405180910390a4611c1460008686868661213f565b5050505050565b60606000611c2b836000016122e1565b905060608190508092505050919050565b6000611c478461086c565b90508573ffffffffffffffffffffffffffffffffffffffff168173ffffffffffffffffffffffffffffffffffffffff1614611cbd578084876040517f5b271ea2000000000000000000000000000000000000000000000000000000008152600401611cb493929190613787565b60405180910390fd5b600073ffffffffffffffffffffffffffffffffffffffff168573ffffffffffffffffffffffffffffffffffffffff161415611d24576040517f24ecef4d00000000000000000000000000000000000000000000000000000000815260040160405180910390fd5b6000611d2e6116ca565b9050611d3b878787612083565b611d45878661233d565b611d9685600460008a73ffffffffffffffffffffffffffffffffffffffff1673ffffffffffffffffffffffffffffffffffffffff1681526020019081526020016000206123aa90919063ffffffff16565b50611de885600460008973ffffffffffffffffffffffffffffffffffffffff1673ffffffffffffffffffffffffffffffffffffffff16815260200190815260200160002061212890919063ffffffff16565b50856003600087815260200190815260200160002060006101000a81548173ffffffffffffffffffffffffffffffffffffffff021916908373ffffffffffffffffffffffffffffffffffffffff160217905550848673ffffffffffffffffffffffffffffffffffffffff168873ffffffffffffffffffffffffffffffffffffffff167fb333c813a7426a7a11e2b190cad52c44119421594b47f6f32ace6d8c7207b2bf848888604051611e9d93929190613cd1565b60405180910390a4611eb1878787866123c1565b611ebe878787878761213f565b50505050505050565b6000611ed5826000016124bf565b9050919050565b6060611eea826000016122e1565b9050919050565b6000611f19836000018373ffffffffffffffffffffffffffffffffffffffff1660001b6124d0565b905092915050565b60007f01ffc9a7000000000000000000000000000000000000000000000000000000007bffffffffffffffffffffffffffffffffffffffffffffffffffffffff1916827bffffffffffffffffffffffffffffffffffffffffffffffffffffffff1916149050919050565b6000611fb3836000018373ffffffffffffffffffffffffffffffffffffffff1660001b612540565b905092915050565b60008073ffffffffffffffffffffffffffffffffffffffff166003600084815260200190815260200160002060009054906101000a900473ffffffffffffffffffffffffffffffffffffffff1673ffffffffffffffffffffffffffffffffffffffff1614159050919050565b600061204f836000018373ffffffffffffffffffffffffffffffffffffffff1660001b612654565b905092915050565b6060828260405160200161206c929190613d5c565b604051602081830303815290604052905092915050565b600073ffffffffffffffffffffffffffffffffffffffff168373ffffffffffffffffffffffffffffffffffffffff1614156120d3576001600260008282546120cb9190613d88565b925050819055505b600073ffffffffffffffffffffffffffffffffffffffff168273ffffffffffffffffffffffffffffffffffffffff1614156121235760016002600082825461211b9190613ae8565b925050819055505b505050565b600061213783600001836124d0565b905092915050565b61215084636bb56a1460e01b612677565b1561223b5760008585858460405160200161216e9493929190613e62565b60405160208183030381529060405290508473ffffffffffffffffffffffffffffffffffffffff16636bb56a147fc7a120a42b6057a0cbed111fbbfbd52fcd96748c04394f77fc2c3adbe0391e0160001b836040518363ffffffff1660e01b81526004016121dd929190613eac565b600060405180830381600087803b1580156121f757600080fd5b505af115801561220b573d6000803e3d6000fd5b505050506040513d6000823e3d601f19601f820116820180604052508101906122349190613f4c565b50506122da565b816122d95760008473ffffffffffffffffffffffffffffffffffffffff163b1461229c57836040517f4349776d0000000000000000000000000000000000000000000000000000000081526004016122939190612e19565b60405180910390fd5b836040517f031731370000000000000000000000000000000000000000000000000000000081526004016122d09190612e19565b60405180910390fd5b5b5050505050565b60608160000180548060200260200160405190810160405280929190818152602001828054801561233157602002820191906000526020600020905b81548152602001906001019080831161231d575b50505050509050919050565b6000600560008381526020019081526020016000209050600061235f826127a2565b905060005b818110156123a35760006123826000856127b790919063ffffffff16565b905061238f8187876116d2565b50808061239b90613a0d565b915050612364565b5050505050565b60006123b98360000183612540565b905092915050565b6123d284636bb56a1460e01b612677565b156124b9576000848484846040516020016123f09493929190613e62565b60405160208183030381529060405290508473ffffffffffffffffffffffffffffffffffffffff16636bb56a147f3724c94f0815e936299cca424da4140752198e0beb7931a6e0925d11bc97544c60001b836040518363ffffffff1660e01b815260040161245f929190613eac565b600060405180830381600087803b15801561247957600080fd5b505af115801561248d573d6000803e3d6000fd5b505050506040513d6000823e3d601f19601f820116820180604052508101906124b69190613f4c565b50505b50505050565b600081600001805490509050919050565b60006124dc8383612654565b61253557826000018290806001815401808255809150506001900390600052602060002001600090919091909150558260000180549050836001016000848152602001908152602001600020819055506001905061253a565b600090505b92915050565b600080836001016000848152602001908152602001600020549050600081146126485760006001826125729190613ae8565b905060006001866000018054905061258a9190613ae8565b90508181146125f95760008660000182815481106125ab576125aa613850565b5b90600052602060002001549050808760000184815481106125cf576125ce613850565b5b90600052602060002001819055508387600101600083815260200190815260200160002081905550505b8560000180548061260d5761260c613f95565b5b60019003818190600052602060002001600090559055856001016000868152602001908152602001600020600090556001935050505061264e565b60009150505b92915050565b600080836001016000848152602001908152602001600020541415905092915050565b6000806301ffc9a760e01b836040516024016126939190613fd3565b604051602081830303815290604052907bffffffffffffffffffffffffffffffffffffffffffffffffffffffff19166020820180517bffffffffffffffffffffffffffffffffffffffffffffffffffffffff838183161783525050505090506000808573ffffffffffffffffffffffffffffffffffffffff166175308460405161271d9190613fee565b6000604051808303818686fa925050503d8060008114612759576040519150601f19603f3d011682016040523d82523d6000602084013e61275e565b606091505b5091509150602081511015612779576000935050505061279c565b818015612796575080806020019051810190612795919061401a565b5b93505050505b92915050565b60006127b0826000016124bf565b9050919050565b60006127c683600001836127d1565b60001c905092915050565b60008260000182815481106127e9576127e8613850565b5b9060005260206000200154905092915050565b82805461280890613983565b90600052602060002090601f01602090048101928261282a5760008555612871565b82601f1061284357805160ff1916838001178555612871565b82800160010185558215612871579182015b82811115612870578251825591602001919060010190612855565b5b50905061287e9190612882565b5090565b5b8082111561289b576000816000905550600101612883565b5090565b6000604051905090565b600080fd5b600080fd5b60007fffffffff0000000000000000000000000000000000000000000000000000000082169050919050565b6128e8816128b3565b81146128f357600080fd5b50565b600081359050612905816128df565b92915050565b600060208284031215612921576129206128a9565b5b600061292f848285016128f6565b91505092915050565b60008115159050919050565b61294d81612938565b82525050565b60006020820190506129686000830184612944565b92915050565b600073ffffffffffffffffffffffffffffffffffffffff82169050919050565b60006129998261296e565b9050919050565b6129a98161298e565b81146129b457600080fd5b50565b6000813590506129c6816129a0565b92915050565b6000819050919050565b6129df816129cc565b81146129ea57600080fd5b50565b6000813590506129fc816129d6565b92915050565b60008060408385031215612a1957612a186128a9565b5b6000612a27858286016129b7565b9250506020612a38858286016129ed565b9150509250929050565b600080fd5b6000601f19601f8301169050919050565b7f4e487b7100000000000000000000000000000000000000000000000000000000600052604160045260246000fd5b612a9082612a47565b810181811067ffffffffffffffff82111715612aaf57612aae612a58565b5b80604052505050565b6000612ac261289f565b9050612ace8282612a87565b919050565b600067ffffffffffffffff821115612aee57612aed612a58565b5b602082029050602081019050919050565b600080fd5b6000612b17612b1284612ad3565b612ab8565b90508083825260208201905060208402830185811115612b3a57612b39612aff565b5b835b81811015612b635780612b4f88826129ed565b845260208401935050602081019050612b3c565b5050509392505050565b600082601f830112612b8257612b81612a42565b5b8135612b92848260208601612b04565b91505092915050565b600067ffffffffffffffff821115612bb657612bb5612a58565b5b602082029050602081019050919050565b600080fd5b600067ffffffffffffffff821115612be757612be6612a58565b5b612bf082612a47565b9050602081019050919050565b82818337600083830152505050565b6000612c1f612c1a84612bcc565b612ab8565b905082815260208101848484011115612c3b57612c3a612bc7565b5b612c46848285612bfd565b509392505050565b600082601f830112612c6357612c62612a42565b5b8135612c73848260208601612c0c565b91505092915050565b6000612c8f612c8a84612b9b565b612ab8565b90508083825260208201905060208402830185811115612cb257612cb1612aff565b5b835b81811015612cf957803567ffffffffffffffff811115612cd757612cd6612a42565b5b808601612ce48982612c4e565b85526020850194505050602081019050612cb4565b5050509392505050565b600082601f830112612d1857612d17612a42565b5b8135612d28848260208601612c7c565b91505092915050565b60008060408385031215612d4857612d476128a9565b5b600083013567ffffffffffffffff811115612d6657612d656128ae565b5b612d7285828601612b6d565b925050602083013567ffffffffffffffff811115612d9357612d926128ae565b5b612d9f85828601612d03565b9150509250929050565b6000819050919050565b612dbc81612da9565b82525050565b6000602082019050612dd76000830184612db3565b92915050565b600060208284031215612df357612df26128a9565b5b6000612e01848285016129ed565b91505092915050565b612e138161298e565b82525050565b6000602082019050612e2e6000830184612e0a565b92915050565b600080fd5b60008083601f840112612e4f57612e4e612a42565b5b8235905067ffffffffffffffff811115612e6c57612e6b612e34565b5b602083019150836001820283011115612e8857612e87612aff565b5b9250929050565b60008060208385031215612ea657612ea56128a9565b5b600083013567ffffffffffffffff811115612ec457612ec36128ae565b5b612ed085828601612e39565b92509250509250929050565b612ee581612938565b8114612ef057600080fd5b50565b600081359050612f0281612edc565b92915050565b600060208284031215612f1e57612f1d6128a9565b5b6000612f2c84828501612ef3565b91505092915050565b600060208284031215612f4b57612f4a6128a9565b5b600082013567ffffffffffffffff811115612f6957612f686128ae565b5b612f7584828501612c4e565b91505092915050565b600081519050919050565b600082825260208201905092915050565b6000819050602082019050919050565b612fb38161298e565b82525050565b6000612fc58383612faa565b60208301905092915050565b6000602082019050919050565b6000612fe982612f7e565b612ff38185612f89565b9350612ffe83612f9a565b8060005b8381101561302f5781516130168882612fb9565b975061302183612fd1565b925050600181019050613002565b5085935050505092915050565b600060208201905081810360008301526130568184612fde565b905092915050565b600060208284031215613074576130736128a9565b5b600082013567ffffffffffffffff811115613092576130916128ae565b5b61309e84828501612b6d565b91505092915050565b600081519050919050565b600082825260208201905092915050565b6000819050602082019050919050565b600081519050919050565b600082825260208201905092915050565b60005b8381101561310d5780820151818401526020810190506130f2565b8381111561311c576000848401525b50505050565b600061312d826130d3565b61313781856130de565b93506131478185602086016130ef565b61315081612a47565b840191505092915050565b60006131678383613122565b905092915050565b6000602082019050919050565b6000613187826130a7565b61319181856130b2565b9350836020820285016131a3856130c3565b8060005b858110156131df57848403895281516131c0858261315b565b94506131cb8361316f565b925060208a019950506001810190506131a7565b50829750879550505050505092915050565b6000602082019050818103600083015261320b818461317c565b905092915050565b600080600080600060a0868803121561322f5761322e6128a9565b5b600061323d888289016129b7565b955050602061324e888289016129b7565b945050604061325f888289016129ed565b935050606061327088828901612ef3565b925050608086013567ffffffffffffffff811115613291576132906128ae565b5b61329d88828901612c4e565b9150509295509295909350565b600082825260208201905092915050565b60006132c6826130d3565b6132d081856132aa565b93506132e08185602086016130ef565b6132e981612a47565b840191505092915050565b6000602082019050818103600083015261330e81846132bb565b905092915050565b600067ffffffffffffffff82111561333157613330612a58565b5b602082029050602081019050919050565b600061335561335084613316565b612ab8565b9050808382526020820190506020840283018581111561337857613377612aff565b5b835b818110156133a1578061338d88826129b7565b84526020840193505060208101905061337a565b5050509392505050565b600082601f8301126133c0576133bf612a42565b5b81356133d0848260208601613342565b91505092915050565b600080600080600060a086880312156133f5576133f46128a9565b5b600086013567ffffffffffffffff811115613413576134126128ae565b5b61341f888289016133ab565b955050602086013567ffffffffffffffff8111156134405761343f6128ae565b5b61344c888289016133ab565b945050604086013567ffffffffffffffff81111561346d5761346c6128ae565b5b61347988828901612b6d565b935050606061348a88828901612ef3565b925050608086013567ffffffffffffffff8111156134ab576134aa6128ae565b5b6134b788828901612d03565b9150509295509295909350565b600081519050919050565b600082825260208201905092915050565b60006134eb826134c4565b6134f581856134cf565b93506135058185602086016130ef565b61350e81612a47565b840191505092915050565b6000602082019050818103600083015261353381846134e0565b905092915050565b600060208284031215613551576135506128a9565b5b600061355f848285016129b7565b91505092915050565b6000806040838503121561357f5761357e6128a9565b5b600061358d858286016129ed565b925050602083013567ffffffffffffffff8111156135ae576135ad6128ae565b5b6135ba85828601612c4e565b9150509250929050565b6135cd81612da9565b81146135d857600080fd5b50565b6000813590506135ea816135c4565b92915050565b600060208284031215613606576136056128a9565b5b6000613614848285016135db565b91505092915050565b613626816129cc565b82525050565b6000602082019050613641600083018461361d565b92915050565b600081519050919050565b600082825260208201905092915050565b6000819050602082019050919050565b61367c816129cc565b82525050565b600061368e8383613673565b60208301905092915050565b6000602082019050919050565b60006136b282613647565b6136bc8185613652565b93506136c783613663565b8060005b838110156136f85781516136df8882613682565b97506136ea8361369a565b9250506001810190506136cb565b5085935050505092915050565b6000602082019050818103600083015261371f81846136a7565b905092915050565b6000806000604084860312156137405761373f6128a9565b5b600084013567ffffffffffffffff81111561375e5761375d6128ae565b5b61376a86828701612e39565b9350935050602061377d868287016135db565b9150509250925092565b600060608201905061379c6000830186612e0a565b6137a9602083018561361d565b6137b66040830184612e0a565b949350505050565b7f4b657973206c656e677468206e6f7420657175616c20746f2076616c7565732060008201527f6c656e6774680000000000000000000000000000000000000000000000000000602082015250565b600061381a6026836134cf565b9150613825826137be565b604082019050919050565b600060208201905081810360008301526138498161380d565b9050919050565b7f4e487b7100000000000000000000000000000000000000000000000000000000600052603260045260246000fd5b6000819050602082019050919050565b600061389b82516129cc565b80915050919050565b600082821b905092915050565b60006138bc826130d3565b826138c68461387f565b90506138d18161388f565b925060208210156139115761390c7fffffffffffffffffffffffffffffffffffffffffffffffffffffffffffffffff836020036008026138a4565b831692505b5050919050565b6000819050919050565b61393361392e82612da9565b613918565b82525050565b60006139458284613922565b60208201915081905092915050565b7f4e487b7100000000000000000000000000000000000000000000000000000000600052602260045260246000fd5b6000600282049050600182168061399b57607f821691505b602082108114156139af576139ae613954565b5b50919050565b60006040820190506139ca600083018561361d565b6139d76020830184612e0a565b9392505050565b7f4e487b7100000000000000000000000000000000000000000000000000000000600052601160045260246000fd5b6000613a1882612da9565b91507fffffffffffffffffffffffffffffffffffffffffffffffffffffffffffffffff821415613a4b57613a4a6139de565b5b600182019050919050565b7f4f776e61626c653a206e6577206f776e657220697320746865207a65726f206160008201527f6464726573730000000000000000000000000000000000000000000000000000602082015250565b6000613ab26026836134cf565b9150613abd82613a56565b604082019050919050565b60006020820190508181036000830152613ae181613aa5565b9050919050565b6000613af382612da9565b9150613afe83612da9565b925082821015613b1157613b106139de565b5b828203905092915050565b7f4d697373696e6720656d7074792073717561726520627261636b65747320275b60008201527f5d272061742074686520656e64206f6620746865206b6579206e616d65000000602082015250565b6000613b78603d836134cf565b9150613b8382613b1c565b604082019050919050565b60006020820190508181036000830152613ba781613b6b565b9050919050565b6000819050919050565b613bc9613bc4826128b3565b613bae565b82525050565b6000819050919050565b613bea613be5826129cc565b613bcf565b82525050565b600081905092915050565b6000613c06826134c4565b613c108185613bf0565b9350613c208185602086016130ef565b80840191505092915050565b6000613c388286613bb8565b600482019150613c488285613bd9565b602082019150613c588284613bfb565b9150819050949350505050565b7f4f776e61626c653a2063616c6c6572206973206e6f7420746865206f776e6572600082015250565b6000613c9b6020836134cf565b9150613ca682613c65565b602082019050919050565b60006020820190508181036000830152613cca81613c8e565b9050919050565b6000606082019050613ce66000830186612e0a565b613cf36020830185612944565b8181036040830152613d0581846132bb565b9050949350505050565b60007fffffffffffffffffffffffffffffffff0000000000000000000000000000000082169050919050565b6000819050919050565b613d56613d5182613d0f565b613d3b565b82525050565b6000613d688285613d45565b601082019150613d788284613d45565b6010820191508190509392505050565b6000613d9382612da9565b9150613d9e83612da9565b9250827fffffffffffffffffffffffffffffffffffffffffffffffffffffffffffffffff03821115613dd357613dd26139de565b5b828201905092915050565b60008160601b9050919050565b6000613df682613dde565b9050919050565b6000613e0882613deb565b9050919050565b613e20613e1b8261298e565b613dfd565b82525050565b600081905092915050565b6000613e3c826130d3565b613e468185613e26565b9350613e568185602086016130ef565b80840191505092915050565b6000613e6e8287613e0f565b601482019150613e7e8286613e0f565b601482019150613e8e8285613bd9565b602082019150613e9e8284613e31565b915081905095945050505050565b6000604082019050613ec1600083018561361d565b8181036020830152613ed381846132bb565b90509392505050565b6000613eef613eea84612bcc565b612ab8565b905082815260208101848484011115613f0b57613f0a612bc7565b5b613f168482856130ef565b509392505050565b600082601f830112613f3357613f32612a42565b5b8151613f43848260208601613edc565b91505092915050565b600060208284031215613f6257613f616128a9565b5b600082015167ffffffffffffffff811115613f8057613f7f6128ae565b5b613f8c84828501613f1e565b91505092915050565b7f4e487b7100000000000000000000000000000000000000000000000000000000600052603160045260246000fd5b613fcd816128b3565b82525050565b6000602082019050613fe86000830184613fc4565b92915050565b6000613ffa8284613e31565b915081905092915050565b60008151905061401481612edc565b92915050565b6000602082840312156140305761402f6128a9565b5b600061403e84828501614005565b9150509291505056fe7b224c5350344d65746164617461223a7b226465736372697074696f6e223a22746f6b656e20636f6c6c656374696f6e227d7d7b224c5350344d65746164617461223a7b226465736372697074696f6e223a22746f6b656e7a227d7da2646970667358221220ba1db10cff16a27f1e2f4052c30460efe265d25471cc6bd4272d161e2dcdcc4764736f6c63430008090033697066733a2f2f516d54737a3958796b63354a55416655613677574e726e4b6d546a64444d47464a526d46665145654c51397838757b224c5350344d65746164617461223a7b226465736372697074696f6e223a22746f6b656e7a227d7d",
  "linkReferences": {},
  "deployedLinkReferences": {}
}